:020000041000EA
:10000000002008205B0100101B0100101D010010E2
:100010001101001011010010110100101101001058
:100020001901001019010010190100101F01001022
:10003000110100101901001021010010230100100E
:100040001101001011010010110100101101001028
:100050001101001011010010110100101101001018
:100060001101001011010010110100101101001008
:1000700011010010110100101101001011010010F8
:1000800011010010110100101101001011010010E8
:1000900011010010110100101101001011010010D8
:1000A00011010010110100101101001011010010C8
:1000B00011010010110100101101001011010010B8
:1000C00011010010110100101101001011010010A8
:1000D0001101001011010010110100101101001098
:1000E0001101001011010010110100101101001088
:1000F0001101001011010010110100101101001078
:100100001101001011010010110100101101001067
:10011000EFF30580103800BE00BE00BE00BE00BE7A
:1001200000BE00BEF2EB8871D0340010F434001031
:100130009C01001090A31AE7D3DEFFFF42012110BB
:10014000FF0100008C3A0000793512AB00201E49F7
:10015000086006C881F3088810474FF050400068D7
:1001600008B10020F3E70DA40ECC002902D000F066
:1001700012F8F9E71549164A002000E001C1914242
:10018000FCD114498847144988471449884700BE60
:10019000FDE701C901C29A42FBD37047F434001055
:1001A00010010020E0070020C43B001000000820E0
:1001B00000000820C43B0010001008200010082098
:1001C000000000007047000008ED00E0E00700209C
:1001D000940E002095270010E10100105727001011
:1001E00030B5C1B002F08EFC192000F065F819237B
:1001F0004FF0010242EC4430002516E000242AE0D2
:1002000034B1694600230DF804301A4802F05EFC50
:100210002946194802F05AFC19234FF0000242EC1B
:1002200040304FF47A7000F001FD0135134802F0C0
:100230001DFC19234FF0010242EC40304FF47A705C
:1002400000F0F4FC002002F0E9FB10F1020FD5D021
:100250008DF80000012410F1020FD1D0FE2CCFDC6C
:10026000002002F0DBFB10F1020FC9D00DF80400F2
:100270000134F0E7942E0010A42E0010902E0010F0
:100280000C4B03EB800253F8203083F0400303F063
:10029000C00302F5805CCCF80030C00000F1804063
:1002A00000F52030416002F540524FF48073136036
:1002B000704700BF0480034008B54FF0000242ECD5
:1002C000440042EC40000521FFF7DAFF08BD0000C2
:1002D0000FB400B583B0084802F0C8FB049B3BB1E3
:1002E00005A90191184602F0D1FB044802F0BEFBBB
:1002F000012002F02DFA00BFC42E0010AC32001015
:10030000EFF3108072B6064BD3E8CF1F012200290D
:10031000FAD1C3E8412F0029F6D1BFF35F8F7047B0
:10032000230E00200023034AC2E88F3F80F3108889
:10033000704700BF230E002070B505460C461646D8
:10034000FFF7DEFFE208A95C04F0070C012303FAC3
:100350000CF3194205D1DBB20B43AB54FFF7E2FFBC
:1003600070BD21463046FFF7B3FF0000054A107804
:10037000431CDBB21370172B02D9134610221A70DC
:10038000704700BF980700204FF0E022936843F0C9
:100390000053936070470000002305E0044A1A44AC
:1003A0000021C2E88F1F01331F2BF7D9704700BF10
:1003B000180E0020064B9B68103043F82010BFF346
:1003C0005F8F00230349C1E88F3F82F31088704795
:1003D00000ED00E0210E00200048704700E400E03E
:1003E00008B5FFF7F9FF002304E04FF0803240F832
:1003F000042B01330C2BF8D962B608BD3AB1064B79
:1004000000F1600243F8221043F8201070472030BA
:10041000014B43F82010704700E100E008B50A46A0
:1004200000F01F03012199404009FFF7E7FF08BDD5
:10043000024B9B68103053F82000704700ED00E03D
:1004400070B505460C46EFF3108372B61E46104B8E
:10045000D3E8CF1F01220029FAD1C3E8412F002998
:10046000F6D1BFF35F8FFFF7E3FF0A4B984201D04D
:10047000A04205D1324621462846FFF79BFF70BDBA
:10048000054B064A4FF48271054802F067F900BF38
:10049000210E002011010010302F001048330010F1
:1004A000EC2E0010014B0B4403607047180E002027
:1004B00010B50446FFF75AFF01462046FFF7F2FF4A
:1004C000FF232371BFF35F8F10BD10B50446FFF704
:1004D0004DFF01462046FFF7E5FFFF232371002370
:1004E0006371BFF35F8F10BD10B50D4C09E00D4B6C
:1004F0000D4A1A210D4802F031F92046FFF7D8FFC6
:1005000008340B4B9C4209D22368002BF5D0012BF9
:10051000EDD12046FFF7D9FF0834F2E710BD00BF48
:10052000D8070020682F001088330010882F001093
:10053000E00700200246EFF30583DBB2103B990889
:1005400004D0034803F00303136070470148F9E740
:1005500000800B4000000B4000B5D0F828C0A2EB93
:100560000C0E0B1D50F82330A3EB0C039E4506D355
:10057000D0F820C001238B401CEA030F02D10431C4
:1005800040F8212000BD41EA00407047104A13683E
:10059000EFF3108072B6D3E8CFCF0121BCF1000F8A
:1005A000F9D1C3E84C1FBCF1000FF4D1BFF35F8F4A
:1005B00008490B780133DBB20B7012680023C2E8E4
:1005C0008F3F80F3108840BF00200021704700BF9C
:1005D0008C0E0020900E00202DE9F04F85B003A86E
:1005E000FFF7A8FF954B984214BF002301230399FE
:1005F00001EB8303924A52F823402378994206D1B3
:10060000054601228A4000F541535A602CE18D4B8A
:100610008D4A9C218D4802F0A1F8D4F8149006EB85
:1006200046074FEAC70A09EBC707D7F808B0D7F85B
:100630000C80284600F0CAFBB0EB0B0061EB08030E
:10064000002BC0F21A81B8F1000F64DB3B691A4637
:1006500000937F4B9A4230D0798889B2B4F9080070
:10066000FFF791FF7969009B9847009001910099ED
:10067000019A51EA02034ED01346002A29DABBEB55
:10068000010268EB0308BA60C7F80C8039F90A70F8
:10069000002FC0F2F280D4F814E007EB47030EEB12
:1006A000C3039968DB68511A68EB0303002BC0F29F
:1006B000E480A4462CF8087F17E07A691369009259
:1006C0001046984738B3009A136800935368019313
:1006D000CDE7284600F07AFB009B1A18019B43EBFC
:1006E0000108D0E79C463EF90B70002F0EDBBCF9E9
:1006F000003003EB43034FEAC30B0EEBC3039868D0
:10070000D968101A68EB01010029EBDA29F80A70A0
:10071000ACF80060B1E039F90A3023812369EFF3C6
:10072000108272B6D3E8CF0F01210028FAD1C3E8B6
:10073000401F0028F6D1BFF35F8FB4F9023029F8CB
:100740000A30668021690023C1E88F3F82F3108858
:1007500093E02369EFF3108272B6D3E8CF0F012143
:100760000028FAD1C3E8401F0028F6D1BFF35F8FFD
:10077000B4F804800FFA88F84FF6FF73A38021695C
:100780000023C1E88F3F82F310881AE01F4630F93A
:100790000A60002E0FDBB7F9003003EB43034FEA8A
:1007A000C30A00EBC3039968DA68BCEB01016EEB86
:1007B0000202002AEADAA7F8008030F9098020F85E
:1007C0000960B8F1000F5DDB606908EB48034FEA90
:1007D000C30900EBC303D3F808C0D3F80CE004F15D
:1007E0000807B4F90860D4E70023A37104F1080CEA
:1007F000B4F9083010E04FF0FF384FF0FF39C0E98E
:100800000289B4F90800984205D0ACF80020B4F988
:100810000800C85323811346B3F1FF3F35D0616907
:1008200003EB4302D70001EBC20031F932204688C6
:1008300016F4004FDFD18446EDE700BF00800B4087
:100840006C0E00201C300010B43300104830001033
:10085000D9050010284600F0B9FA3F1A66EB0106E8
:10086000012F76F1000628DA039A01239340EB6307
:10087000B4F90860002EBFF6D0AEA38813F4004F81
:100880003FF467AFA379002BAED1B4F90830002B49
:1008900013DB626903EB430302EBC3039F68DE686B
:1008A000B6F1FF3F08BFB7F1FF3FD3D03A4633461A
:1008B00003992846FFF750FECCE740BF05B0BDE8DE
:1008C000F08F00BFF8B504460D4611460A4B98421A
:1008D00010D000262E44012707FA05F52562304680
:1008E000FFF7AEFD39463046FFF798FD04F5015499
:1008F0002560F8BD0426EDE700800B40F8B50446FE
:100900000E4617461D46C160FFF730FD164B0344E7
:1009100023612770ABB263814FF05042127862704E
:100920004FF6FF722281A280013B63804FF0000CE2
:1009300008E00CF1FF300CEB4C0E636923F83E002D
:100940000CF1010CAC45F4D3084B9E4214BF0023BC
:10095000012307EB8303064A42F82340054A394640
:100960003046FFF7AFFFF8BD180E002000800B40A7
:100970006C0E0020D905001008B5054B1B690BB1A2
:10098000034808BD034B044A6521044801F0E6FE14
:10099000A8070020883000109C3300104830001059
:1009A000F8B504469E460069EFF3108172B6D0E8B0
:1009B000CF6F0125002EFAD1C0E8465F002EF6D198
:1009C000BFF35F8FB4F90250666905EB4500C700BD
:1009D00006EBC000002D03DB36F907C0A4F802C007
:1009E0004FF0000C2369C3E88FCF81F31088654571
:1009F00033DB06990161079941618260C0F80CE020
:100A0000418889B20131C1F30E0101B90121418050
:100A10002846FFF7B8FD2369EFF3108272B6D3E8DA
:100A2000CFCF0121BCF1000FF9D1C3E84C1FBCF1BD
:100A3000000FF4D1BFF35F8FA388F353A580216922
:100A40000023C1E88F3F82F31088E36821780122F8
:100A50008A4003F501535A60F8BD4FF0FF30FBE7C1
:100A600070B582B0064615461C469DF8203033B955
:100A700000F0D6F9854264EB010100290ADB079BEF
:100A80000193069B00932A4623463046FFF788FFD2
:100A900002B070BD0020FBE7F0B585B007460E46FA
:100AA00015461C46FFF768FF9DF828300293019415
:100AB00000953A463346FFF7D3FF05B0F0BD034635
:100AC0004089B0EB214F31DD10B50A14586902EBB3
:100AD000420200EBC2001A69EFF3108C72B6D2E842
:100AE000CF4F5FF0010E002CF9D1C2E844EF002C8B
:100AF000F5D1BFF35F8F428892B289B28A420FD09C
:100B0000002019690022C1E88F2F8CF3108830B1C2
:100B1000DA681B780121994002F50153596010BD34
:100B200042F40042428001209871EAE700207047B9
:100B300010B50446FFF720FF2146FFF7C0FF10BDA8
:100B4000F0B583B0EFF30583DBB2CBB904460D46B5
:100B5000861F41F1FF37B04271EB070301D2002637
:100B6000374600F05DF9301A67EB0103012873F195
:100B7000000308DA2046294600F064F903B0F0BD0E
:100B80001C48FFF7A5FB002300931B4A304639465B
:100B9000FFF782FF002822DAECE720BF1EE01749AA
:100BA0000B68EFF3108072B6D3E8CFCF0122BCF10F
:100BB000000FF9D1C3E84C2FBCF1000FF4D1BFF303
:100BC0005F8F0F4A1378DBB2D1F800C00021CCE868
:100BD0008F1F80F3108812789A42DED020BF094B15
:100BE0005B6A9F42DBD8074A926AB242C2D29F42F6
:100BF000C0D1D4E7AC3000108D0500108C0E002061
:100C0000900E002000000B4038B505460C4600F061
:100C100007F9281844EB0101002902DBFFF790FFD8
:100C200038BD4FF0FF306FF00041F7E708B5C30E55
:100C30004101091A63F100039B0043EA91738900A3
:100C4000091843F10003DB00C80043EA5171FFF7C4
:100C5000DBFF08BDF0B583B005460C46EFF3058316
:100C6000DBB233BB3E4B1A685B688B4208BF8242E3
:100C700012D0FFF781FEC3681F460678184600F0C1
:100C8000A5F82A1A64EB0101331D57F823301B1A0B
:100C90009A4271F1000125DB20BF324B5B6A9C4216
:100CA0001BD8304A926AAA421AD29C4213D0012021
:100CB00014E02C4B5B6A8B4209D32A4A926A904219
:100CC00007D98B4201D0012008E0002006E0002077
:100CD00004E0012002E0002000E0002003B0F0BDAD
:100CE0000120FBE7002300931F4A28462146FFF717
:100CF000D3FE00281BDD1A4B1D605C60194B5B6A3C
:100D00009C4205D8174A926AAA4202D29C4200D15C
:100D100020BFFFF70DFF134B5B6A9C421BD8114AA3
:100D2000926AAA4219D29C4213D00120D6E70D4BF9
:100D30005B6A9C4209D80B4A926AAA4207D29C423B
:100D400001D00120CAE70020C8E70020C6E7012043
:100D5000C4E70020C2E70020C0E70120BEE700BFD3
:100D6000A007002000000B408D05001000487047D0
:100D700000000B4010B50A4B1B6923B10A2109483A
:100D8000FFF790FB10BDFFF7F1FF0446032100F0D1
:100D90000BF81023032221460148FFF7AFFDEDE7D2
:100DA000A80700208C0E002008B5054ADFF818C0FF
:100DB000044B604514BF1846581CFFF7BDFA08BD28
:100DC000FC300010380E002000800B400246436AC1
:100DD000906A1946536A9942FAD17047416A00E015
:100DE000416A9942FCD300E0416A994202D1816A8A
:100DF0009142F9D3704770B5064615461C46FFF779
:100E0000E5FF421941EB0403824273EB010102D278
:100E10004FF0FF3213463046FFF7E0FF70BD000091
:100E200008B50248FFF7D2FF08BD00BF00000B4025
:100E300008B502460B460248FFF7DDFF08BD00BFBC
:100E400000000B4008B502460B460248FFF7C6FFFC
:100E500008BD00BF00000B4070B515461E4600EBF4
:100E6000400C4FEA8C0C0CF1804C0CF5803CDCF80B
:100E70000430049A934201D2CCF80420041FE4B257
:100E8000012C2AD90CF540534FF400621A60204B14
:100E900053F820204AB15B69B3FBF2FE0EF1010E5C
:100EA0000EEB4E0EBEF1030EFCD2DCF8002082EAFF
:100EB000451202F0E0020CF5805ECEF80020012C15
:100EC00017D90CF500534FF400621A60049BCCF85C
:100ED00004300F4B43F8206070BD0129D2D10CF5CE
:100EE000405303221A60DCF8083013F0010FFAD0E7
:100EF000DBE7DCF800304B4003F00303CEF80030B2
:100F0000DCF8083001228A401342F9D0D9E700BF4B
:100F10003C0E002000B583B04FF4803CCDF800C0FB
:100F2000FFF79AFF03B000BD014B53F82000704754
:100F30003C0E002038B58E469446049A3349B1FBE6
:100F4000FEF1334C6444334DAC4234D8BCFBF1F475
:100F5000A4F11005B5F5987F33D85D1E062D36D85F
:100F6000551E062D33D8B1EB1C1F36D8120342EAAA
:100F700003410368002B36DB274B984243D00E23F6
:100F800001229A40254B1A6003F580531A60244BC6
:100F90009B6832EA0303FAD1C0F800E0846000F5F0
:100FA00040520432212313600368002BFCDAC16035
:100FB0000823136038BD1B4B1B4A11211B4801F04D
:100FC000CDFB1B4B184A1921184801F0C7FB194BE0
:100FD000154A1C21154801F0C1FB174B124A232169
:100FE000124801F0BBFB036803F03F037345C3D114
:100FF0008368C3F30B03A342BED1C36803F4EE239B
:101000008B42B9D1D6E70F23BAE700BF001BB70068
:1010100080E84BD380F8A9320080054000200240D0
:101020000000024020310010CC330010703100105D
:10103000B4310010D03100101C320010054A00EB12
:10104000400302EB8303596000EB40008000012362
:10105000135070470080104008B50023DB8A00223F
:1010600042E800F212F4800F02D11021984708BD27
:1010700004219847FBE70000034BD3F82838002BE6
:10108000FAD0BFF35F8F704700000E40002207E0E8
:10109000054B13449B00BFF35F8F002119600132A1
:1010A000072AF5D9704700BF0382031008B5FFF780
:1010B000EDFF08BD074B4FF42A621A604FF48D72A2
:1010C000DA6003F50053044A1A60024B5B68002B98
:1010D000FBDA70470080044000B0FA0010B5044607
:1010E00002E054F8043B9847014B9C42F9D310BDF1
:1010F000902E00107047000008B50248FFF7EEFF81
:1011000008BD00BF502E0010064B074A1A6003F5B9
:101110008053064A1A60064B9A68044B9343FAD1EF
:10112000704700BF002002407F3BEFEFF6FFF30364
:1011300000000240054BDB6CB3F5004F00D0704758
:10114000034B4FF48022DA64F9E700BF000011502E
:10115000002011504FF0E022D2F8881D034B0B43C2
:10116000C2F8883D10EE3004704700BF0303300022
:10117000054B6FF060421A60044B9B68DB4333F011
:101180006043F9D1704700BF0030024000000240C8
:1011900008B545F25320FFF75FFF03460420984748
:1011A00008BD08B545F25320FFF756FF034601205E
:1011B000984708BD08B5FFF7EFF808BD10B50C4912
:1011C0000C4C641AA4082246442C28BF44229200E6
:1011D000094801F02DFE04E0084A074B43F824209B
:1011E0000134432CF8D9044A054B9A6010BD00BF66
:1011F000000000101001001000000020110100107C
:1012000000ED00E038B50420FFF78EFE064BA3FB8F
:101210000035AD0C002404E02946E0B2FFF70EFFD4
:101220000134052CF8DD38BD83DE1B4330B583B0B7
:10123000264B0022C3F88420FFF73CFF244B0122F9
:10124000DA63224B5B6C012BFBD1214B03221A6327
:101250001E4B9B6B012BFBD10224009405231D4ADE
:1012600001211D48FFF766FE052500952B461B4A08
:1012700001211B48FFF75EFE1A4B00222146042085
:10128000FFF748FE184C2346002201212846FFF7AD
:1012900041FE164D2B46002211460820FFF73AFE6C
:1012A0002B46002211460920FFF734FE2346002278
:1012B00011460620FFF72EFE234600221146072086
:1012C000FFF728FEFFF79EFF03B030BD000001408E
:1012D00000300140002F685900000540008C86470F
:1012E00000800540001BB70080D1F008006CDC02D4
:1012F00086B003B451FC0804CDE9020151FC090495
:10130000CDE9040151EC0A04CDE9060103BCF04724
:10131000BDE800504EEC00C4BDE800504EEC01C4E6
:10132000BDE800504EEC02C400BD000000B5FFF760
:10133000DFFF02E010FE30F4F8D441EC100443EC7F
:10134000112400EE010410EE010480EE200451ECA3
:101350001004704700B5FFF7CBFF02E010FE30F439
:10136000F8D441EC100443EC112400EE010410EE1B
:10137000210480EE200451EC3004704700B5FFF7E3
:10138000B7FF02E010FE30F4F8D410B541EC1004C1
:1013900043EC112451EC040453EC0524A0FB024C53
:1013A0005FF0000EE0FB03CEE1FB02CE4CEC2044EC
:1013B0000024E1FB03E444EC30E480EE200451EC33
:1013C000500410BD00B5FFF793FF02E010FE30F4AB
:1013D000F8D441EC100443EC112451EC2104A0FB9F
:1013E00001126FEA820252FB100052FB12F252FB12
:1013F0001000A0EBD07C53EC04245CFB13F153EC05
:101400001524A1FB022001FB030053EC4424A2EBB2
:10141000000050FB1CF24FEA111312EB017043EB7A
:10142000E27140EA515020EA915020F0070053EC5D
:101430007524A0FB023C53EC752400FB03CC01FB9C
:1014400002CC53EC0424ACEB824C40EA5C70A0F17B
:10145000010041EC400480EE200451EC7004704720
:1014600000B5FFF745FF02E010FE30F4F8D440EC81
:10147000700400EE010410EE210480EE200451EC13
:101480003004704700B5FFF733FF02E010FE30F480
:10149000F8D440EC600400EE010410EE210480EE6C
:1014A000200451EC3004704700B5FFF721FF02E043
:1014B00010FE30F4F8D441EC800400EE010410EE8C
:1014C000010480EE400410EE1304704700B5FFF7EE
:1014D0000FFF02E010FE30F4F8D441EC800400EE7F
:1014E000010410EE010480EE400410EE3304704756
:1014F00000B5FFF7FDFE02E010FE30F4F8D441EC39
:10150000100443EC112400EE010410EE3004C0F38B
:101510000070704700B5FFF7EBFE02E010FE30F4FC
:10152000F8D443EC102441EC110400EE010410EE59
:1015300030F48CBF01200020704700BF00B5FFF7DA
:10154000D7FE02E010FE30F4F8D443EC102441EC56
:10155000110400EE010410EE30F42CBF0120002035
:10156000704700BF00B5FFF7C3FE02E010FE30F485
:10157000F8D441EC100443EC112400EE010410EE09
:1015800030F42CBF01200020704700BF00B5FFF7EA
:10159000AFFE02E010FE30F4F8D441EC100443EC4E
:1015A000112400EE010410EE30F48CBF0120002065
:1015B000704700BF704720B108B50A684968904776
:1015C00008BD70470146002008E000EB8000531C76
:1015D0000B60137803EB4003A3F130000A68137823
:1015E000303BDBB2092BF0D970472DE9F04F83B0C7
:1015F00005460E4693461F46DDF830800D9CDDF80B
:1016000038900F9B13F00202009228D113F0010FC3
:101610000FD05A461BE002F1010B3B463146202019
:10162000A8470AF1010A5A46CA45F4D3DDF804B0C6
:101630000DE0A2465A46CDF804B0F5E7013C02F1B0
:10164000010A3B46314618F80400A8475246002CD0
:10165000F4D1009B5BB9104603B0BDE8F08F5A4649
:10166000F5E7541C3B4631462020A8472246A2EB12
:101670000B034B45F5D3EEE72DE9F04184B004466A
:101680000D4616461F46DDF828E0DDF82CC09DF813
:1016900030301A4698460E980F99109B13F0020F9F
:1016A00021D169B113F0010F0AD012B913F00C0F58
:1016B00006D0013904E030220EF80C200CF1010CA8
:1016C000844502D2BCF11F0FF5D913F0010F0AD0E7
:1016D0008C4508D2BCF11F0F05D830220EF80C2023
:1016E0000CF1010CF1E713F0100F17D013F4806F19
:1016F00006D1BCF1000F03D0844529D08C4527D0FA
:101700000D9A102A3CD00D9A022A47D0BCF11F0F27
:101710000FD830220EF80C200CF1010CBCF11F0F79
:1017200007D84246002A42D02D220EF80C200CF198
:10173000010C03930291CDF804C0CDF800E03B46C4
:10174000324629462046FFF750FF04B0BDE8F0813D
:10175000BCF1010220D00D9810280FD094460D9AAC
:10176000102AD0D113F0200FCDD0BCF11F0FCAD852
:1017700058220EF80C200CF1010CC7E7ACF1020C5A
:1017800013F0200FEBD1BCF11F0FE8D878220EF830
:101790000C200CF1010CB9E79446B1E7BCF11F0F26
:1017A000C7D862220EF80C200CF1010CAEE713F042
:1017B000040F05D02B220EF80C200CF1010CB8E719
:1017C00013F0080FB5D020220EF80C200CF1010CFC
:1017D000AFE7F0B591B00D4616461F46169B189A16
:1017E0001B990BB921F0100111F4806E1DD063B369
:1017F0004FF0000E19E011F0200F24D04124A44432
:101800005FFA8CFCACF10A0C5FFA8CFC0EF101045F
:101810000EF1400EEE440EF820CCB3FBF2FC9342E6
:1018200014D31F2C12D8A6466346B3FBF2FC02FB6E
:101830001C3C5FFA8CFCBCF1090FDCD80CF1300CBD
:101840005FFA8CFCE2E76124D9E71C4606911A9BFB
:101850000593199B049303929DF85C3002930194C5
:1018600008AB00933B4632462946FFF705FF11B00F
:10187000F0BD2DE9F04F95B0834609910A920B9384
:101880001E9F1F9DDDF88880DDF88C90DDF898A004
:1018900057EA050301D12AF0100A1AF4806422D015
:1018A00057EA05032DD000241DE01AF0200F26D0A2
:1018B00041231344DBB20A3BDBB2661C04F1500245
:1018C0000DEB020404F8203C42464B4638462946BC
:1018D00001F0AAFA474575EB090513D31F2E11D85D
:1018E000344607460D4642464B463846294601F0E7
:1018F0009BFAD2B2092AD8D83032D3B2DDE76123BD
:10190000D7E70026CDF818A0259B0593249B0493C8
:10191000CDF80C809DF88030029301960CAB0093BB
:101920000B9B0A9A09995846FFF7A6FE15B0BDE829
:10193000F08F0000000000002DE9F04F93B0044646
:101940000D460E921E46DDE91C8942464B46404636
:101950004946FFF7D1FD002840F0FE804FF0FF32EE
:10196000B54B40464946FFF715FE002840F0F4808D
:101970004FF0FF326FF4801340464946FFF7CEFD2B
:10198000002840F0E9800022002340464946FFF746
:10199000C5FD002840F0F180CDE90689209B13F4B5
:1019A00080630F9301D106231E93DDE906AB5246F7
:1019B0005B46CDE90A23079B5AEA030100F0E78062
:1019C000C3F30A50C3F313034FF0000A4FF0000BA8
:1019D000CDE908AB089243F07F53099343F44013D9
:1019E0000993A0F2FF30FFF73FFD81A3D3E9002365
:1019F000FFF7C8FC80A3D3E90023FFF79BFC8246D6
:101A00008B4600228D4BDDE90801FFF7A7FC7CA384
:101A1000D3E90023FFF7B6FC02460B465046594671
:101A2000FFF788FCFFF744FD0890FFF71DFD824695
:101A30008B4675A3D3E90023FFF7A4FC0022804B5B
:101A4000FFF778FCFFF734FD074671A3D3E90023C5
:101A500050465946FFF796FC82468B463846FFF7BC
:101A600003FD6DA3D3E90023FFF78CFC02460B4670
:101A700050465946FFF772FC02460B4682468B469B
:101A8000FFF780FCCDE90C0107F2FF3300210022B3
:101A9000CDE90A121B050B9300230A9350465946C1
:101AA00052465B46FFF746FCCDE9100152465B46C5
:101AB00000204FF08041FFF751FC82468B46002208
:101AC000604BDDE90C01FFF781FC00225E4BFFF764
:101AD00031FC02460B46DDE90C01FFF777FC0022E2
:101AE0005A4BFFF727FC02460B46DDE90C01FFF7D6
:101AF0006DFC02460B4650465946FFF71BFC02465A
:101B00000B46DDE91001FFF761FC0022504BFFF7A7
:101B100011FCDDE90A23FFF735FC02460B46CDE94F
:101B20000C23DDE90CABCDE90AABDDE90623FFF7B9
:101B300031FD50B1089B013B08930022424BDDE987
:101B40000C01FFF743FCCDE90A01089B6333C62B68
:101B500048D804231F461EE0209B04931F9B039339
:101B60001E9B0293CDE9008933460E9A29462046F2
:101B700000F002F913B0BDE8F08F9FED297B8DEDE9
:101B8000067BCDF8188009F10043079306E7002390
:101B9000089304231F46209B13F4006F63D0DDE9F4
:101BA0000A1213460B4315D01FA3D3E90023DDE926
:101BB00006AB50465946FFF7D9FC002800F0B68026
:101BC0001BA3D3E9002350465946FFF7A7FC002882
:101BD00000F0AC801E9A089B9A423BDDD31A013B71
:101BE0001E9339E005231F46D5E700BFAFF3008001
:101BF000FB799F501344D33FB3C8608B288AC63FFC
:101C000061436F63A787D23F71A379094F930A405D
:101C10001655B5BBB16B0240EF39FAFE422EE63FD6
:101C200000000000000000002D431CEBE2361A3FCC
:101C30000000000080842E41FFFFEF7F0000F83F8E
:101C40000000E03F00002C4000002440000018404D
:101C50000000F03F00231E93209B43F480632093F9
:101C600000231F4608931F9A974269D2D31B9A46B6
:101C7000209B13F002039B4602D00FB100239A462B
:101C8000089B3BB1DDE90A23DDE90601FFF79EFB76
:101C9000CDE906010022002340464946FFF73EFCFD
:101CA000002850D1209B23F400630493CDF80CA0AE
:101CB0001E9B02939DED067B8DED007B33460E9AB5
:101CC0002946204600F058F8002F3FF453AF209BE0
:101CD00013F0200F3FD04FF0450C00F101083346C0
:101CE000024629466046A047089981EAE172A2EBC4
:101CF000E172052305937B1E0493002303930A23BB
:101D00000293CB0F01930092334642462946204668
:101D1000FFF75FFD5B46002B3FF42CAF0246DDF87A
:101D2000389037462E4625461F9C1EE01E9B002BF2
:101D300099D00F9B002B96D01E9B013B1E9392E7E0
:101D400000239A4694E7DDE90601024601F10043CB
:101D5000CDE90623A6E74FF0650CBEE702F10108C6
:101D60003B4631462020A8474246A2EB0903A34246
:101D7000F4D31046FEE600BF2DE9F04F2DED028BA7
:101D800095B00790089109920A93DDE92089229D78
:101D900042464B4640464946FFF7AEFB002834D149
:101DA0004FF0FF326FF4801340464946FFF7B6FB11
:101DB000002839D14FF0FF32A94B40464946FFF782
:101DC000E9FB00283FD1A2A3D3E9002340464946BE
:101DD000FFF7E0FB00284CD19FA3D3E90023404646
:101DE0004946FFF79BFB002843D1002200234046D1
:101DF0004946FFF793FB002849D10B90249B13F42D
:101E0000806F00F0B580002454E0249B0393239B53
:101E1000029303230193934B00930A9B099A089919
:101E20000798FFF7E2FB50E1249B0393239B029367
:101E3000042301938C4B00930A9B099A08990798F5
:101E4000FFF7D3FB41E1249B13F0040F0ED0874B27
:101E500004222499039123990291019200930A9BF1
:101E6000099A08990798FFF7C0FB2EE1804B0322DF
:101E7000EFE7249B0493239B03930295CDE900890C
:101E80000A9B099A08990798FFF756FD1DE14246FB
:101E90004B4600200021FFF761FA80468946012366
:101EA0000B93ABE704F150036B44302203F8202C72
:101EB000013D01341F2C01D8092DF3D84046494675
:101EC000FFF7F6FA0646FFF7CFFA02460B46404602
:101ED0004946FFF743FA674B03EBC50393ED007BDD
:101EE000B0EE478AF0EE678A53EC172BFFF74AFAF9
:101EF00082468B46FFF7EEFA0746FFF7C7FA02461F
:101F00000B4650465946FFF729FA82468B46002277
:101F1000594BFFF73FFB68B301373846FFF7B6FA76
:101F200002460B4651EC180BFFF70CFB08B10136CB
:101F300000276DBB3046FFF797FA02460B46404636
:101F40004946FFF70BFA8046894600224A4BFFF7C5
:101F5000E5FA00284CD10022474B40464946FFF79E
:101F600019FB002844D116F0010F41D001363FE0A3
:101F7000062548E70022404B50465946FFF7CEFA67
:101F80000028D6D117B117F0010FD2D00137D0E712
:101F90001F2C17D8013D394BA3FB0723DB0819463B
:101FA00003EB8303A7EB4303621C303304F15000BF
:101FB0000DEB000404F8203C092F02D90F4614460B
:101FC000E6E714461F2C0AD86B1E45B104F15002F7
:101FD0006A44302102F8201C1D460134F2E71F2C10
:101FE00006D804F150036B442E2203F8202C013450
:101FF0001F2C17D8224A82FB0632F317C3EBA20329
:102000001A4603EB8303A6EB4303611C303304F150
:1020100050000DEB000404F8203C16460AB10C46B3
:10202000E6E70C46249B13F0020F36D113F0010FA4
:1020300033D0239B002B4DD00B9B1BB9249B13F05B
:102040000C0F49D0239B013B2393194621E000BF8D
:102050000000000065CDCD410000000065CDCDC180
:10206000FFFFEF7F9432001098320010883200108A
:1020700090320010383400100000E03FCDCCCCCCC2
:102080006766666604F150036B44302203F8202C27
:1020900001348C4201D21F2CF4D91F2C08D80B9B81
:1020A000E3B104F150036B442D2203F8202C0134DA
:1020B000249B0393239B029301940CAB00930A9BF4
:1020C000099A08990798FFF790FA15B0BDEC028BB2
:1020D000BDE8F08F2399DCE72399DAE7249B13F01E
:1020E000040F07D004F150036B442B2203F8202C7B
:1020F0000134DDE7249B13F0080FD9D004F150031D
:102100006B44202203F8202C0134D1E72DE9F04F55
:102110008FB0804617460D938946002900F0F6825D
:1021200000260D9B1878002800F0F382252809D09E
:10213000741C3B4632464946C0470D9B01330D9304
:102140002646EEE701330D93002511E0202A24D026
:10215000232A05D145F0100501330D93012306E034
:10216000002304E045F0020501330D930123E3B1A0
:102170000D9B1A782B2A0AD0E8D92D2AF2D0302AC2
:1021800011D145F0010501330D930123EFE745F02F
:10219000040501330D930123E9E745F008050133F8
:1021A0000D930123E3E70023E1E70A930D9B1A78DF
:1021B000A2F13003DBB2092B15D92A2A18D0DDF899
:1021C00028B00D9B1A782E2A22D00D9B1A786C2AE3
:1021D00043D039D9742A5CD07A2A5ED145F480750F
:1021E00001330D9359E00DA8FFF7ECF98346E8E7BA
:1021F000189B1A1D18921B68002B04DB9B460D9B35
:1022000001330D93DDE745F00205C3F1000BF6E75E
:1022100045F480655A1C0D925A78A2F13003DBB266
:10222000092B0CD92A2AD0D1189B1A1D18921C6888
:1022300024EAE4730A930D9B01330D93C5E70DA8BF
:10224000FFF7C0F90A90C0E7682A14D06A2A24D19F
:1022500045F4007501330D931FE045F480715A1C5D
:102260000D925A786C2A01D00D4616E045F440755F
:1022700002330D9311E045F080015A1C0D925A78FB
:10228000682A01D00D4608E045F0C00502330D93E1
:1022900003E045F4807501330D930D9B1878652894
:1022A0003DD071D8462800F0878018D963282FD1F7
:1022B00015F0020500F0A48101241898031D18935D
:1022C00006F1010A3B46324649460078C047002DD8
:1022D00040F099810D9B01330D93564621E7252847
:1022E0000AD1741C3B46324649462520C0470D9B07
:1022F00001330D93264614E7452810D0741C3B4645
:1023000032464946C0470D9B01330D93264608E7E8
:102310002CD858282CD062282AD04728EED16728FC
:1023200001D0472801D145F40065452801D0472850
:1023300001D145F02005189B073323F0070303F173
:10234000080218920495CDF80CB00A9A0292D3E9CB
:102350000023CDE900233B46324649464046FFF77D
:10236000EBFA06460D9B01330D93DAE66428C5D1DE
:1023700078284BD058287CD06F287CD062287CD01D
:1023800025F010050A2342E0702800F0A4810ED940
:10239000732834D1189B1A1D1892D3F800A00A9BF9
:1023A000002B40F05A814FF0FF3253463BE1672843
:1023B000B5D01FD86628A1D1462800F01181189BFE
:1023C000073323F0070303F1080218920495CDF8B0
:1023D0000CB00A9A0292D3E90023CDE900233B46D0
:1023E000324649464046FFF7C7FC06460D9B01337F
:1023F0000D9396E66928BBD06F28B9D07EE7FFF42D
:102400007DAF7528B4D07828B2D077E7102358284C
:1024100035D0692803D0642801D025F00C0515F4C7
:10242000806F01D025F0010569282BD0642829D0C0
:1024300015F4007F40F0968015F4807F40F0AE8068
:1024400015F0400F00F0BF80189A111D18911278F6
:102450000595CDF810B00A990391029300230193DA
:1024600000923B46324649464046FFF7B2F90646DF
:1024700029E01023CBE70823C9E70223C7E745F08B
:102480002005C6E715F4007F21D115F4807F42D1E5
:1024900015F0400F58D0189A111D1891127882EA41
:1024A000E271A1EBE2710595CDF810B00A980390A6
:1024B0000293D20F019200913B4632464946404674
:1024C000FFF787F906460D9B01330D9329E6189A0D
:1024D000073222F0070202F10801189151681268D0
:1024E0000846002913DB0895CDF81CB00A9C069419
:1024F000049300230593C90F0291009201903B467B
:10250000324649464046FFF7B4F90646DBE75242F9
:1025100061EB4100E7E7189A111D1891126882EAF1
:10252000E271A1EBE2710595CDF810B00A98039025
:102530000293D20F019200913B46324649464046F3
:10254000FFF747F90646BEE715F0800F05D0189A49
:10255000111D1891B2F90020A1E7189A111D1891C8
:1025600012689CE7189A073222F0070202F108016C
:1025700018910895CDF81CB00A9906910021049392
:1025800005910291D2E90023CDE900233B46324672
:1025900049464046FFF76DF9064694E7189A111D23
:1025A00018910595CDF810B00A9903910293002374
:1025B0000193136800933B46324649464046FFF775
:1025C00008F906467FE715F0800F04D0189A111D10
:1025D000189112883CE7189A111D1891126837E774
:1025E00045F02005EBE602F1010A3B464946202072
:1025F000C047234652465C1C9B45F4D816465CE611
:1026000001233246F7E7524606E0561C3B46494650
:102610002020C0472C463246651CA345F5D892467B
:1026200058E601330A46197811B1511E002AF8D133
:10263000A3EB0A0315F480620B9203D00A9A93422B
:1026400028BF134615F0020409D032460B9E0B94A6
:10265000CDF830B00A9D9B461FE00A9AA5E63246A7
:10266000264606E0541C3B4649462020C0472B46E0
:1026700022465D1C9B45F5D834462B460B9E0B9499
:10268000CDF830B00A9D9B4607E01D460AF1010ACD
:10269000541C3B464946C04722469AF8000020B1E8
:1026A000002EF3D06B1E002DEFD116460B9C5B461F
:1026B000DDF830B054B90D9B01330D9331E5551C55
:1026C0003B4649462020C04723462A465C1C9B4582
:1026D000F5D81646EFE745F02105189B1A1D18920C
:1026E0001B680595082204920A9A0392102202920E
:1026F0000022019200933B46324649464046FFF78E
:1027000068F806460D9B01330D930AE5DFF81C803F
:1027100006E5BE4208D37A1E3B4649460020C04724
:1027200030460FB0BDE8F08F3246F5E7B515001022
:1027300000B585B002900391009313464FF0FF322D
:1027400002A90248FFF7E2FC05B000BDB715001072
:1027500000BEFDE7704708B5FFF7FAFF00B583B08C
:102760008C46194662B19646074BCDF804E00093BB
:1027700063460246054800F0A9F90120FFF7E8FF8B
:10278000034B9E46F1E700BFA0320010B0320010AC
:10279000AC32001010B5EFF30583DBB203B100BE1D
:1027A000FEF7AAFC044C02E054F8043B9847034BA4
:1027B0009C42F9D310BD00BF902E0010902E001047
:1027C00008B5034608461B681146984708BD000037
:1027D000F8B507460D461646437D13B10024204642
:1027E0000CE003681146284698472CE03B7D0FE03B
:1027F0003B68022114489847601C0134B44213DA44
:10280000002CF3DD631EEB5C0D2B14BF00230123B2
:102810002A5D0A2AF1D1002BEFD1A042E8DA3B6809
:10282000211A28449847E3E7B04203DA3B68311A9B
:1028300028449847002E06DD013EAB5D0D2B14BFEA
:10284000002301233B75F8BDA434001038B503689C
:10285000B3B105460B4B1C6806E0294651F8042B22
:102860002046FFF7B5FF24694CB12368002BFAD04E
:10287000054B1B68002BF0D0A342F4D1EDE72C6090
:1028800038BD00BF640E0020680E002008B50B683C
:102890005A1C0A600B441871802A00D008BD0846F3
:1028A000FFF7D4FFFAE7000008B5FEF7B9FA074AC8
:1028B000821841F10003002B03DB054800F0C0FA49
:1028C00008BD4FF0FF326FF00043F6E740420F00C3
:1028D000D807002008B5024800F0AEFA08BD00BFD6
:1028E000D80700202DE9F04383B006460D469046F8
:1028F0001C46FFF7D9FF8146B5F1FF3F04D044B134
:10290000164F174B1C6807E0304600F05FFA05468B
:10291000F5E7144FF5E72469BCB12368002BFAD022
:10292000114B1B680BB1A342F5D12A463146204614
:10293000B847B8F1000FEED00A238DF80730012216
:102940000DF107012046B847E5E74B461BB928467D
:1029500003B0BDE8F083FFF7BDFFF8E7D127001013
:10296000640E0020C1270010680E00202DE9F04100
:1029700006460D4690461F46144B1C6807E0A368A8
:1029800023B129463046984700281CDC246934B11D
:102990000F4B1B68002BF2D0A342F7D1EFE70D4B92
:1029A0005B6A9F4208D80B4A926A424509D29F420D
:1029B00002D06FF0010006E001200021FEF738FA96
:1029C000DAE76FF00100BDE8F08100BF640E00207F
:1029D000680E002000000B40084A136802E003F173
:1029E00010021B693BB113688342F8D129B903690E
:1029F00013600161704701B110607047640E0020E0
:102A000010B5054B1C6800E0246924B16368002BF5
:102A1000FAD09847F8E710BD640E002010B582B0D8
:102A20000446FEF7FDF9221841F10003002B0ADBF2
:102A3000012101A8FFF79AFF002802DB40B19DF8B1
:102A4000040002B010BD4FF0FF326FF00043EFE71B
:102A5000034B044A4FF485710348FFF77FFE00BF24
:102A6000E032001088340010E432001038B505461A
:102A700000F0ACF9044601231A4601462846FFF748
:102A800031FFFFF7BDFF204638BD0000F0B5A3B011
:102A900007460E46FFF708FF05460023019301ACE9
:102AA00033463A4621460848FFF742FE064620468E
:102AB000FFF7CCFEFFF7A4FF15B9304623B0F0BDF9
:102AC000FFF708FFF9E700BF8D2800100FB400B52D
:102AD00083B004A951F8040B0191FFF7D7FF03B0AD
:102AE0005DF804EB04B0704708B50A4601460020C3
:102AF00000F002F908BD08B50A460146002000F0C2
:102B000045F908BD08B500F05DF901210248FFF75D
:102B100063FF024B1B7808BDC0070020F034001093
:102B20000369C268934204D881688A1A1344581E04
:102B30007047981A013870472DE9F8430446164645
:102B4000C5688768A7EB0508904509D940682844FF
:102B500000F06EF9BFF35F8F3544E560BDE8F883A0
:102B6000406842468946284400F062F9ED1B35442E
:102B70002A4649464144606800F05AF9BFF35F8F26
:102B8000E560EBE72DE9F843064688461746C56839
:102B90004FF000091CE0B2685B1B1A44013AB368AD
:102BA0005C1B944228BF1446BC4228BF3C46706858
:102BB00022464146284400F03BF9A144A0443F1B73
:102BC0002544B368AB4209D0BFF35F8FF5603FB1D6
:102BD00033699D42DFD25B1B5A1EE0E70025F3E715
:102BE0004846BDE8F883000010B5154CA822002126
:102BF000204600F029F9032323616361114AA26191
:102C0000114BE3614FF4806323620023A36263628C
:102C1000E36222660D4A62661022A2662367E366BB
:102C20006367BFF35F8F06E0C3F10F020849895C59
:102C3000034AD15401330F2BF6D9BFF35F8F10BD78
:102C4000600900203C330010180A0020080A002008
:102C5000B43400102DE9F04704468A469046254BCF
:102C60001B78532B18D104EB4402224B03EBC20315
:102C70001F6FDD6EAF4212D80026ED1B454528BF01
:102C800045464DBB2EB104EB44041A4B03EBC40381
:102C90001F673046BDE8F087FFF7A6FFE3E713465E
:102CA000144A02EBC309D9F86860F61B464528BFF1
:102CB0004646D9F8641032463944504600F0B8F818
:102CC000534633449A46A8EB06083744D9F868308F
:102CD000BB42D2D10027D0E704EB4402054B03EB03
:102CE000C203596E2A463944504600F0A1F82E44DA
:102CF0002F44C7E76009002010B50B46EFF311849D
:102D00004FF0200181F311881946FFF7A3FF84F3E8
:102D1000118810BD2DE9F0410F4615469046431C21
:102D200003EB4302184B03EBC2010E4600EB4000DD
:102D300003EBC003DC6A012C0ED0022C1BD00CBBB1
:102D40000846FFF7EDFE854212D82C462A46394642
:102D50003046FFF7F1FE0BE00846FFF7E1FE444680
:102D6000804528BF0446224639463046FFF7E4FE38
:102D70002046BDE8F0812A4639463046FFF702FF7B
:102D80000446F5E70024F3E760090020F8B505469E
:102D90000E4617460A4B1B78532B0DD1EFF31184C7
:102DA0004FF0200181F311883A4631462846FFF75B
:102DB000B1FF84F31188F8BDFFF716FFEEE700BFFF
:102DC0006009002008B5FFF70FFF08BD20F00301E0
:102DD00010F00300C0F1000051F8043B00F1040CB6
:102DE0004FEACC0C6FF000021CBF22FA0CF2134326
:102DF0004FF0010C4CEA0C2C4CEA0C4CA3EB0C02EF
:102E000022EA030212EACC1204BF51F8043B043058
:102E1000F4D0C2F1000102EA0102B2FA82F2C2F178
:102E20001F0200EBD20070475FF800F0A102002003
:102E30005FF800F09D0600205FF800F039020020E6
:102E40005FF800F0050200205FF800F01506002092
:102E50009111001009110010351100102D120010F1
:102E600071110010AD100010B51100107910001094
:102E7000E9040010BD110010750D0010F5100010D0
:102E8000A31100105511001089030010E103001078
:102E90004F6E000052656365697665643A2025735C
:102EA0000A0000004F66662E20546869732077611F
:102EB00073206C6F6F70206E756D62657220256473
:102EC0000A0000000A2A2A2A2050414E4943202A9B
:102ED0002A2A0A0030783163203D3D20282A696E75
:102EE0007374293E3E313175000000002F686F6D0C
:102EF000652F7068696C6C69702F2E7069636F2D17
:102F000073646B2F73646B2F322E332E302F7372DA
:102F1000632F7270325F636F6D6D6F6E2F686172B9
:102F200064776172655F6972712F6972712E6300D7
:102F300063757272656E74203D3D205F5F756E68CB
:102F4000616E646C65645F757365725F6972712030
:102F50007C7C2063757272656E74203D3D206861D3
:102F60006E646C657200000031203D3D202875695B
:102F70006E747074725F74296C2D3E7370696E5F2D
:102F80006C6F636B000000002F686F6D652F7068B9
:102F9000696C6C69702F2E7069636F2D73646B2F71
:102FA00073646B2F322E332E302F7372632F636F47
:102FB0006D6D6F6E2F7069636F5F73796E632F6DC8
:102FC000757465782E630000746F74616C00000086
:102FD0006D74782D3E636F72652E7370696E5F6CD1
:102FE0006F636B006C6F636B5F69735F6F776E65A8
:102FF000725F69645F76616C6964286D74782D3ED8
:103000006F776E65722900006D74782D3E656E7461
:1030100065725F636F756E7400000000706F6F6C97
:103020002D3E74696D65725F616C61726D5F6E7566
:103030006D203D3D2074696D65725F616C61726DDC
:103040005F6E756D000000002F686F6D652F7068F2
:10305000696C6C69702F2E7069636F2D73646B2FB0
:1030600073646B2F322E332E302F7372632F636F86
:103070006D6D6F6E2F7069636F5F74696D652F740E
:10308000696D652E6300000064656661756C745F30
:10309000616C61726D5F706F6F6C5F696E6974698E
:1030A000616C697A656428290000000041747465C8
:1030B0006D7074656420746F20736C656570206931
:1030C0006E73696465206F6620616E206578636544
:1030D0007074696F6E2068616E646C65723B2075F8
:1030E000736520627573795F776169742069662002
:1030F000796F75206D75737400000000486172640B
:103100007761726520616C61726D20256420616C4D
:10311000726561647920636C61696D6564000000AB
:1031200076636F5F66726571203E3D205049434F64
:103130005F504C4C5F56434F5F4D494E5F46524582
:10314000515F485A2026262076636F5F667265714C
:10315000203C3D205049434F5F504C4C5F56434FFD
:103160005F4D41585F465245515F485A000000008C
:103170002F686F6D652F7068696C6C69702F2E7089
:1031800069636F2D73646B2F73646B2F322E332E34
:10319000302F7372632F7270325F636F6D6D6F6E5D
:1031A0002F68617264776172655F706C6C2F706CF0
:1031B0006C2E63006662646976203E3D20313620C5
:1031C0002626206662646976203C3D20333230003A
:1031D00028706F73745F64697631203E3D20312022
:1031E000262620706F73745F64697631203C3D2021
:1031F00037292026262028706F73745F6469763221
:10320000203E3D203120262620706F73745F646954
:103210007632203C3D203729000000007265665F51
:1032200066726571203C3D202876636F5F6672652B
:1032300071202F2031362900446562756700000037
:10324000626F6F74325F7732357130383000000052
:10325000302E3100322E332E300000007069636F43
:10326000320000004D79426C696E6B65725769746B
:10327000685254544D6F6473000000004A756C200E
:103280003138203230323600666E692B0000000083
:10329000666E69006E616E00666E692D000000004A
:1032A0002C2066756E6374696F6E3A200000000012
:1032B000617373657274696F6E20222573222066B4
:1032C00061696C65643A2066696C65202225732209
:1032D0002C206C696E65202564257325730A000017
:1032E000726300002F686F6D652F7068696C6C6980
:1032F000702F2E7069636F2D73646B2F73646B2F47
:10330000322E332E302F7372632F7270325F636FE1
:103310006D6D6F6E2F7069636F5F737464696F2F6B
:10332000737464696F2E630052545420737464691B
:103330006E202F207374646F757400005465726D75
:10334000696E616C000000006972715F7365745F83
:103350006578636C75736976655F68616E646C65CA
:10336000720000006D757465785F6578697400009F
:103370006D757465785F656E7465725F626C6F639E
:103380006B5F756E74696C0072756E74696D655FE4
:10339000696E69745F6D757465780000616C617247
:1033A0006D5F706F6F6C5F6765745F646566617594
:1033B0006C740000616C61726D5F706F6F6C5F693F
:1033C00072715F68616E646C65720000706C6C5F36
:1033D000696E69740000000006005250D3F0754217
:1033E0003832001006005250E182887F40320010CF
:1033F000060052503ABCA91150320010060052503B
:10340000ABB360535432001006005250BBFF3CB6C1
:103410005C32001006005250861C03026432001019
:10342000060052505422A29D7C32001005005250DA
:10343000DE65F468D83B0010000000000000F03F9B
:10344000000000000000244000000000000059407F
:103450000000000000408F40000000000088C340D2
:1034600000000000006AF8400000000080842E4147
:1034700000000000D01263410000000084D7974193
:103480000000000065CDCD41737464696F5F6765AE
:1034900074636861725F74696D656F75745F75736D
:1034A000000000000D0A00000600525053B4F4A1C1
:1034B00028330010000000000000545452205245F0
:0834C0004747455300000000DE
:0834C80008CEFF0F0100000017
:1034D000D8330010E4330010F0330010FC33001038
:1034E0000834001014340010203400102C34001064
:0434F000A8340010EC
:1034F40000B503460068EFF3108272B6D0E8CFEF50
:103504005FF0010CBEF1000FF8D1C0E84ECFBEF160
:10351400000FF3D1BFF35F8F93F90400002809DB98
:1035240079B10860002019680023C1E88F3F82F355
:10353400108800BD4FF0504191F90010197101201D
:10354400F1E70846EFE70000F8B51E4603683BB113
:10355400044615464FF0504393F900301F4613E0DC
:103564001C4B1D4AA6211D4800F002FB277122684E
:103574000023C2E88F3F8CF310880120F8BD284651
:10358400314600F0F1FA10BB2168EFF3108C72B6EB
:10359400D1E8CF2F0123002AFAD1C1E8423F002A03
:1035A400F6D1BFF35F8F94F90430002BDEDB0C4BB4
:1035B40093F800E05FFA8EFE22680021C2E88F1FB4
:1035C4008CF310881B787345D9D120BFD7E700202E
:1035D400D4E700BFD02F001070330010882F0010E4
:1035E400900E002070B582B0064615461C4601A90F
:1035F400FFF77EFF38B99DF904204FF0504393F94B
:1036040000309A4201D102B070BD2A4623463046AA
:10361400FFF79AFFF7E7000008B50168EFF310839E
:1036240072B61A46D1E8CFCF0123BCF1000FF9D10D
:10363400C1E84C3FBCF1000FF4D1BFF35F8F90F9A8
:103644000430002B0EDBFF23037109490B7801338F
:10365400DBB20B7001680023C1E88F3F82F310884E
:1036640040BF08BD034B044AD521044800F080FA4A
:10367400900E0020E42F001064330010882F0010F7
:1036840053B94AB9002908BF00281CBF4FF0FF31C5
:103694004FF0FF3000F0ACB9ADF1080C6DE904CE89
:1036A40000F006F8DDF804E0DDE9022304B0704719
:1036B4002DE9F047064682B0174608460A9AB446F2
:1036C4000D46002B4DD18F42BE4665D9B7FA87F11E
:1036D40049B1C1F120038D4007FA01FE06FA01FC4D
:1036E40026FA03F31D434FEA1E461FFA8EF04FEAF3
:1036F4001C43B5FBF6F406FB145543EA054304FBEF
:1037040000F59D4206D91EEB030302D29D4200F24E
:103714004C81013C5B1B1FFA8CFCB3FBF6F506FBEA
:10372400153305FB00F04CEA034C60450AD91EEB47
:103734000C0C2CBF01230023604502D9002B00F0A0
:103744003781013DACEB000C45EA0440002422B172
:103754002CFA01F30021C2E90031214602B0BDE890
:10376400F0878B4208D90AB1C2E9006100242046DF
:10377400214602B0BDE8F087B3FA83F4002C4DD1A2
:103784008B42C0F00581B74240F202812046002AF4
:10379400E3D0C2E900C5E0E7002F00F0A28019469B
:1037A400B7FA87F3002B40F0B480C31B1FFA8EF8DE
:1037B4003F0C01244FEA1C40B3FBF7F507FB15331C
:1037C40040EA034308FB05F098420AD91EEB0303C1
:1037D4002CBF01260026984202D9002E00F0E28078
:1037E400013D1B1A1FFA8CFCB3FBF7F007FB1033E7
:1037F4004CEA034C08FB00F363450AD91EEB0C0C9E
:103804002CBF01260026634502D9002E00F0C78094
:103814000138ACEB030C40EA054098E7C4F12008FA
:10382400A34006FA04FAA14027FA08FC20FA08F09B
:1038340007FA04F94CEA030C26FA08F34FEA1C468B
:103844000B431FFA8CFE190CB0FBF6F706FB1700AE
:1038540041EA004107FB0EF088420AD91CEB010142
:103864002CBF01250025884202D9002D00F0B2802A
:10387400013F091A9BB2B1FBF6F006FB101100FBE5
:103884000EFE43EA01439E450AD91CEB03032CBFF9
:10389400012100219E4502D9002900F09E800138B3
:1038A40040EA0740A3EB0E03A0FB09E18B427646F6
:1038B4000F4602D307D1F24505D2BEEB090661EBF0
:1038C4000C0101380F4652B1BAEB060163EB070352
:1038D40003FA08F5E140E3400D43C2E90053002434
:1038E4003BE77308B8464908019743EAC0734FEAB7
:1038F400C67C1C0C9BB244EA014443EA0443B4FB77
:10390400F7F4B1FBF7F51F21019844EA05441B1AAB
:1039140050E7194607FA03FEC3F1200300FA01F445
:103924004FEA1E47D84026FA03F31FFA8EF806FA28
:1039340001FC2343B0FBF7F51C0C07FB150044EA1C
:10394400004005FB08F484424AD91EEB00002CBF5A
:1039540001260026844200D98EB3001B013DB0FB32
:10396400F7F404FB08F6A146019607FB19009BB285
:10397400019E43EA0043B342C6D21EEB03032CBFAD
:1039840001200020B34200D2A8B109F1FF34BBE703
:10399400B6EB070C60EB030301201D46F7E6F44485
:1039A400023836E7023D73441BE7023C7344B1E638
:1039B400F444023DC6E6A9F102047344A4E7AEEB65
:1039C4000404023D2044B0FBF7F404FB08F6A146CE
:1039D4000196CAE7023F61444BE7023863445FE75C
:1039E400001BB0FBF7F404FB08F6A1460196BCE704
:1039F400704700BF30B584078646034606D0A2B39D
:103A040003F8011B980702F1FF32F8D1032A26D9E3
:103A14005FFA81FC0F2A0CEB0C2C0CEB0C402AD91E
:103A240022F00F0C9C44C3E90000C3E902001033E8
:103A34006345F8D112F00C0F02F00F0517D04FEACE
:103A4400950C1A460CF1FF3403EB8C0C42F8040B72
:103A54006245FBD1043305F0030203EB840322B176
:103A64001A4403F8011B9A42FBD1704630BD2A4622
:103A7400002AF5D1F9E71546E1E700BF844641EA9B
:103A8400000313F0030349D1403A23D30B680360C6
:103A94004B6843608B688360CB68C3600B690361C8
:103AA4004B6943618B698361CB69C3610B6A0362B0
:103AB4004B6A43628B6A8362CB6AC3620B6B036398
:103AC4004B6B43638B6B8363CB6BC363403040317D
:103AD400403ADBD230320BD30B6803604B6843604F
:103AE4008B688360CB68C36010301031103AF3D216
:103AF4000C3205D351F8043B40F8043B043AF9D2A4
:103B0400043208D0D2071CBF11F8013B00F8013B76
:103B140001D30B8803806046704700BF082A13D383
:103B24008B07B1D010F00303AED0C3F10403D21A53
:103B3400DB071CBF11F8013B00F8013BA4D331F8AB
:103B4400023B20F8023B9FE7043AD9D3013A11F82B
:103B5400013B00F8013BF9D20B7803704B784370BA
:103B64008B788370604670475FF800F0550C001046
:103B74005FF800F05D270010100000000000000056
:103B8400FFFFFFFFFFFFFF7F0000000000000000B9
:103B9400000000000000000000000000E00700201A
:103BA400F72A001000000000E92A001000000000BD
:103BB4000000000000010000000000000000000000
:103BC400D3DEFFFFFE010000FF01000074C5FFFF0C
:043BD400793512AB82
:040000051000014D99
:00000001FF
